:020000040800F2
:10000000C8C60120A9020008075D0008A52700084E
:10001000055D0008890B000835710008000000002C
:10002000000000000000000000000000B5690008AA
:100030008B0B000800000000295D0008A16B000880
:10004000C3020008C3020008C3020008C30200087C
:10005000C3020008C3020008C3020008C30200086C
:10006000C30200088D0B0008C3020008C302000889
:10007000C3020008C3020008C3020008C30200084C
:10008000C3020008C3020008C3020008C30200083C
:10009000C3020008C3020008C3020008C30200082C
:1000A000C3020008C3020008C3020008C30200081C
:1000B000C3020008C3020008F96B0008C30200086D
:1000C000C3020008C3020008C3020008C3020008FC
:1000D000C302000809710008C3020008C302000837
:1000E000C3020008C3020008C3020008C3020008DC
:1000F000C3020008C3020008C3020008C3020008CC
:10010000C3020008C3020008C3020008C3020008BB
:10011000C3020008C3020008C3020008C3020008AB
:10012000C3020008C3020008C3020008C30200089B
:10013000C3020008C3020008C3020008C30200088B
:10014000C3020008C3020008C3020008C30200087B
:10015000C3020008C3020008C3020008C30200086B
:10016000C3020008C3020008C3020008C30200085B
:10017000C3020008C3020008C30200080000000018
:10018000C3020008C302000800F002F800F075F88E
:100190000AA090E8000C82448344AAF10107DA45E2
:1001A00001D100F06AF8AFF2090EBAE80F0013F0BF
:1001B000010F18BFFB1A43F00103184794440100D4
:1001C000B44401000A444FF0000C10F8013B13F056
:1001D000070408BF10F8014B1D1108BF10F8015BA0
:1001E000641E05D010F8016B641E01F8016BF9D193
:1001F00013F0080F1EBF10F8014BAD1C0C1B09D1EA
:100200006D1E58BF01F801CBFAD505E014F8016B5B
:1002100001F8016B6D1EF9D59142D6D370470000ED
:100220000023002400250026103A28BF78C1FBD8FF
:10023000520728BF30C148BF0B60704703681B0AD4
:1002400028BF41F08001642900F02281752900F067
:100250001F81782900F09681E42900F055816329F7
:1002600000F09083732900F09583002070471FB53C
:100270000EF0DCFF1FBD10B510BD00F0BDFB114638
:10028000FFF7F5FF0BF016FF00F0DBFB03B4FFF701
:10029000F2FF03BC07F00FF930BF72B6704762B6C9
:1002A000704780F30888704709488047094800472D
:1002B000FEE7FEE7FEE7FEE7FEE7FEE7FEE7FEE716
:1002C000FEE7FEE704480549054A064B7047000073
:1002D000A56B000889010008C8C00120C8C601201C
:1002E000C8C20120C8C20120704753EA020C00F0C6
:1002F00069802DE9F04B4FF00006002B1FBFB3FAC9
:1003000083F503FA05F424FA05F65E4012BF16439E
:10031000B2FA82F502FA05F4C5F120051EBF22FAF1
:1003200005FC44EA0C04203556EA044C4FEA144418
:1003300018BF641C4FF000084FF00009904271EBA9
:10034000030C39D3002919BFB1FA81F701FA07F676
:10035000B0FA80F700FA07F6C7F120071EBF20FAAF
:1003600007FC46EA0C062037B6FBF4FCA7EB0507B2
:10037000103F07F01F0BCBF120060CFA0BFB2CFAF9
:1003800006F644BFB3460026202FA4BF5E464FF0BA
:10039000000B5BEA060C08BF4FF0010B19EB0B09D1
:1003A000ABFB027C48EB0608C01B06FB02CC0BFB38
:1003B00003CC71EB0C01C1E70B46024641464846AF
:1003C000BDE8F08B13B54FF000004FF00001AFF324
:1003D0000080BDE81C4070470FB4044910B503AA63
:1003E000029800F0DBFA10BC5DF814FB1800002046
:1003F00070B5044685690068C10601D5302600E065
:100400002026C00707D070BDD4E9012130469047AF
:10041000206A401C20626D1EF6D570BD70B5044682
:1004200085690078C00707D170BDD4E9012120207B
:100430009047206A401C20626D1EF6D570BD70B5D5
:100440000C460546012A05D02878800600D5EA69C1
:10045000002302E0012305E05B1C934202D2E05C32
:100460000028F9D1A869E618C01AA861286A1844BA
:1004700028622846FFF7BCFF04E0D5E9012114F803
:10048000010B9047B442F8D32846FFF7C7FF70BD71
:100490002DE9F0410646002410687529314616A55D
:1004A00010D0AFF30080002802DA404213A507E025
:1004B00031688A0701D512A502E0490704D511A5C4
:1004C000012401E0AFF3008000210A2206F1240795
:1004D00009E0B0FBF2FCB0FBF2F302FB1C00303091
:1004E00078541846491C0028F3D123462A46304642
:1004F000BDE8F04100F0E3B9000000002D0000006D
:100500002B000000200000002DE9F0418046D21DA4
:1005100022F007020025D2E90002F52915A614D021
:10052000011E72F1000106DA0023D0EB030063EB39
:10053000020211A608E0D8F800108B0701D50FA61B
:1005400002E0490701D50EA601251146002408F155
:10055000240704E000F06EF930323A55641C50EA8A
:100560000102F7D12B46324621464046BDE8F04114
:1005700000F0A5B9000000002D0000002B000000D5
:100580002000000070B504460D4621461068AFF308
:1005900000802188090502D50F4A7A4402E00E4AFC
:1005A0007A440E32002104F1240305E000F00F0626
:1005B0000009965D5E54491C0028F7D1207800237D
:1005C000000704D5702D02D009B102231132204654
:1005D000BDE8704000F073B97A3D01002DE9F05F8D
:1005E000894604464FF0000ADFF874B1FB44C0F8B6
:1005F00020A02046E1688847002874D0252806D02E
:10060000D4E901219047206A401C2062F1E70026CE
:100610005F462046E16888472028054607DB312DE4
:1006200005D2781910F8200C08B10643F1E7B0079D
:1006300001D526F00406C4F81CA00027C4F818A0B1
:100640002A2D09D0284606F02FFF38B304EB87087F
:10065000303DC8F8185019E059F8041B204604EB47
:1006600087029161E1688847012F054618D1E0694A
:10067000002820DA26F020061DE0D8F8180000EB4C
:10068000800005EB40003038C8F818002046E168CB
:100690008847054606F008FF0028EED1012F0AD052
:1006A0002E2D08D12046E16888477F1C0546022F81
:1006B00046F02006C4DBA069002803DA404246F079
:1006C0000106A061F00701D026F010066C2D0BD0BA
:1006D000682D09D04C2D39D06A2D35D0742D35D0E8
:1006E0007A2D33D016E038E0E1682F46204688475F
:1006F000B842054609D16C2F26D04FF48060E168DE
:10070000064320468847054604E06C2F1AD04FF474
:10071000807006430DB3A5F14100192802D8203599
:1007200046F400664A462946204626604E46FFF7B4
:1007300085FD80B101280BD0F61D26F0070000F1E1
:10074000080956E74020E4E78020D8E70020D6E7F4
:1007500006F104094DE7284652E7206ABDE8F09FFC
:10076000503D010040EA0103024630B59B0710D11D
:100770004FF0013400E008C208C91D1B9D4315EA73
:10078000C41FF8D013F0FF0102F8011B0DD01B0AA3
:10079000F8E711F8013B002B02F8013B05D011F8F6
:1007A000013B002B02F8013BF3D130BD4FF0013C7F
:1007B00050F8042B51F8043B9A4221D1A2EB0C03D0
:1007C000934313EACC1317D150F8042B51F8043B90
:1007D0009A4215D1A2EB0C03934313EACC130BD12D
:1007E00050F8042B51F8043B9A4209D1A2EB0C03B8
:1007F000934313EACC13DBD04FF00000704700BFE7
:10080000D01A01BAB1FA81F101F0180122FA01F00F
:10081000CB40C1F12001DBB2C0B2C01A2CFA01F307
:10082000D11A914311EAC311E6D17047704770475E
:100830007047704730B5B0F10A024FEA900E71F17F
:1008400000034EEA817EB0EB0E0061EB91014FEAAE
:10085000101E4EEA017E10EB0E0041EB11114FEA23
:10086000102E4EEA016E10EB0E0041EB11214FEA03
:10087000104E4EEA014E10EB0E0041EB11414018B4
:1008800041F100014FEAD00040EA41704FEAD10146
:1008900010EB80054FEA810444EA907444EB0104B4
:1008A0006D1944EB0404521BA3414FF0000348BFF1
:1008B0000A3200D530BD401C41F1000130BD2DE9A8
:1008C000F0470D4699469246044600F12408016817
:1008D000880604D5E06921F01001216000E00120C4
:1008E000A84201DD471B00E00027A1697A1902EB4D
:1008F0000900081AA0612078C00602D42046FFF73C
:1009000077FD002608E0D4E901211AF80600904797
:10091000206A401C761C20624E45F4DB2078C0061D
:100920000AD52046FFF764FD06E0D4E90121302016
:100930009047206A401C2062381EA7F10107F4DCB2
:1009400007E0D4E9012118F805009047206A401C0F
:100950002062281EA5F10105F3DC2046FFF75EFDAD
:100960002078000602D50220BDE8F0870120FBE7D1
:1009700010B5436913B1AFF3008001E0FFF75FFDED
:10098000012010BD127800F124010A7000224A7083
:100990000122EDE711684FF0FF32E9E7074B70B530
:1009A0000D467B4400F011F80446284600F020F87C
:1009B00010B14FF0FF3070BD204670BD8F9F00001A
:1009C00001694A1C02610878704700B58FB0CDE913
:1009D00001310021059105497944CDE90310114603
:1009E0006846FFF7FBFD0FB000BD0000E5FFFFFF0D
:1009F000007B00F080007047754600F02BF8AE4693
:100A000005006946534620F00700854618B020B51A
:100A1000FFF758FCBDE820404FF000064FF00007FC
:100A20004FF000084FF0000B21F00701AC46ACE896
:100A3000C009ACE8C009ACE8C009ACE8C0098D4603
:100A4000704710B50446AFF300802046BDE8104063
:100A5000FFF71CBC0048704768C00120484910B52A
:100A60004A6822F440324A604A6843681A434A603E
:100A700001684A6822F480724A6001684A68036922
:100A800042EA03224A6001684A6822F040724A60E2
:100A900001684A6883681A434A6001688A6822F4D8
:100AA00000628A6001688A68C3681A438A60816A42
:100AB0006FF07062D14201688A6822F070628A60C9
:100AC00001688A680CD0836A1A438A6001688A6860
:100AD00022F040528A6001688A68C36A1A4301E0C2
:100AE00022F040528A6001688A6822F002028A601D
:100AF00001688A68836942EA43028A60016A0029C0
:100B000001684A6815D042F400624A6001684A6888
:100B100022F460424A6001684B684FF46044426AC4
:100B200094FAA4F4B4FA84F4521EA24013434B6026
:100B300002E022F400624A600168CA6A22F470028C
:100B4000CA620168CA6A838B0E4C04EB03531A43D2
:100B5000CA6201688A6822F400728A6001688A6841
:100B6000036B42EA43228A6001688A6822F4806249
:100B70008A6001688A68406942EA8020886010BD06
:100B8000002301400000F0FFFEE77047082000F05E
:100B900099BA00000F4800B5016887B041F0100114
:100BA00001600068694600F0100005900820009080
:100BB0000948019001200290084800F08FFA0222B3
:100BC0001146092000F0BEFB092000F0B0FB07B081
:100BD00000BD00003038024000002110001002402B
:100BE00070B5B3F5804F05D06FF0704140F822101A
:100BF000002070BD50F82230084C2340D1E9004558
:100C000044EA05148D688E892D0245EA06458969F6
:100C10002C430C431C4340F82240E9E70000F0CF8E
:100C2000F0B50C6850F82450114A1540D1E9012361
:100C3000D1E903671A433E4332434E6932438E691A
:100C40003243CE6932430E6A32434E6A32438E6A71
:100C50003243CE6A3243CE6B096B32430A432A4396
:100C6000082B01D142F0400240F824200020F0BDC2
:100C70008000F0FF30B500EB82004268D1E900341B
:100C800043EA04138C688D89240244EA0544234313
:100C90000C8A084D02F0404205EB045423430C7DBE
:100CA0006D0105EB0464896923430B4313434360DF
:100CB000002030BD0000F0FF30B40C460146154660
:100CC000500700D0012000EBD50010FB05F0C2B2A8
:100CD00008784B78812809D3402B07D3FF2B05D008
:100CE000FF2803D07F2B0CD2403B0BE0002318469B
:100CF00003E05B1C04F8010BDBB29342F9D330BC78
:100D00007047413B8138D9B2C0B2C0EB401303EB0E
:100D1000801001EB4000504309490C2D0AD0102DE2
:100D20000BD0182DEBD1D1F819100144204630BC5E
:100D300006F082BAD1F80910F7E7D1F81110F4E7FC
:100D400008C0012078B50024009490F83C20012AC6
:100D500019D0012280F83C200A6807250368092A77
:100D600013D9DE680A3A02EB42029540AE43DE60D8
:100D70000A788B680A3A02EB420293400268D5680F
:100D80002B43D36010E0022078BD1E6902EB4202C3
:100D90009540AE431E610A788B6802EB4202934095
:100DA000026815692B4313614A681F25072A13D26D
:100DB00003685E6B521E02EB82029540AE435E6397
:100DC0000A8893B20A79521E02EB820293400268AB
:100DD000556B2B43536327E003680D2A12D21E6B19
:100DE000D21F02EB82029540AE431E630A8893B283
:100DF0000A79D21F02EB820293400268156B2B43E3
:100E0000136311E0DE6A0D3A02EB82029540AE43B5
:100E1000DE620A8893B20A790D3A02EB82029340AD
:100E20000268D56A2B43D362164B0568144A9D426B
:100E300006D10D68122D03D1556845F48005556023
:100E400005689D4218D10B68102B01D0112B13D1CE
:100E5000536843F400035360096810290CD10A4910
:100E60000A4A0968B1FBF2F101EB8101490000E097
:100E7000491E00910029FBD180F83C40002078BD3C
:100E800000230140002001400800002040420F00E4
:100E90000068C06C704770B504004FF0000603D0C6
:100EA000206C002510B107E0012070BD656484F856
:100EB0003C50204600F019F8206CC00610D4206C7D
:100EC00020F4885040F0020020642046FFF7C6FD61
:100ED0006564206C20F0020040F00100206400E016
:100EE000012684F83C50304670BD70472DE9F04132
:100EF000044600680D4681684FF0000749050BD590
:100F00008068C00508D5206C40F02000206484F87B
:100F10003C700120BDE8F08100F0D0F906460FE0FA
:100F2000681C0DD025B100F0C9F9801BA84207D973
:100F3000206C40F00400206484F83C700320E9E752
:100F4000206800688007EBD521686FF01200086008
:100F5000206C40F4007020642068816811F0405FCC
:100F600013D1A16989B9C16A11F4700F02D08068E8
:100F700040050AD4206C20F480702064206CC004EA
:100F800003D4206C40F0010020640020C2E7000080
:100F900018B50022009290F83C10012907D00121D9
:100FA00080F83C1001688B68DB0702D011E002205A
:100FB00018BD8B6843F001038B602049204B096802
:100FC000B1FBF3F101EB410100E0491E0091002962
:100FD000FBD101688B68DB072DD0036C40F2016404
:100FE000A34343F4807303644B685B0505D5036C2E
:100FF00023F4005343F480530364036CDB0404D5EF
:10100000436C23F00603436400E0426480F83C2014
:101010000C4A6FF022030B6051680068C90602D0C9
:101020000949884207D1816811F0405F03D1816886
:1010300041F080418160002018BD000008000020C0
:1010400040420F00002301400020014090F835107D
:10105000022903D08021416501207047052180F8D5
:1010600035100068016821F001010160002070471F
:1010700031B500F023F9009C0546601C00D0641CCB
:1010800000F01CF9401BA042FAD338BD10B504464D
:10109000642006F071FF082C0ED10821074800F0EB
:1010A000FDF8002808D106490878401CC0B2087035
:1010B000052801D30020087010BD00000010024078
:1010C00000000020044910B50A68024202D00860FE
:1010D000FFF7DCFF10BD0000143C01402DE9F84F84
:1010E000DFF88C91002209F1040A0AF1040B4FF099
:1010F0000F080BF1040E01260B6896403340B342F3
:1011000071D14C68022C01D0122C11D1D40800EB03
:1011100084073D6A5407E40E08FA04FC25EA0C052E
:10112000D1F810C00CFA04FC4CEA050CC7F820C03A
:1011300007685400032591F804C0A5400CF0030C87
:10114000AF430CFA04FC4CEA070CC0F800C04F682F
:10115000012F05D0022F03D0112F01D0122F11D152
:101160008768D1F80CC0AF430CFA04FC4CEA070CBA
:10117000C0F808C04768B7430E79C6F3001696401A
:101180003E434660C668AE438D68A5403543C560A2
:101190004C68E40065D5374C256845F480452560EA
:1011A000246822F0030504F480440094324C2E1984
:1011B000D6F808789407250F08FA05F4A7432F4CB2
:1011C000A04201D1002424E02D4CA04201D10124F1
:1011D0001FE02C4CA04201D102241AE02A4CA0426C
:1011E00002D1032415E03CE0284CA04201D10424A4
:1011F0000FE0274CA04201D105240AE0254CA04273
:1012000001D1062405E0244CA04201D1072400E0CE
:101210000824AC403C43C6F80848D9F800404D4685
:101220004E689C43F60300D51C432C60DAF800405E
:1012300055464E689C43B60300D51C432C60DBF832
:1012400000405D464E689C43F60200D51C432C606E
:10125000DEF8004075464E689C43B60200D51C433C
:101260002C60521C102AFFF446AFBDE8F88F000036
:10127000003C014044380240003001400000024080
:101280000004024000080240000C0240001002402E
:101290000014024000180240001C0240006908408F
:1012A00000D0012070470AB1816170470904FBE753
:1012B00001480068000C7047002004E00148006805
:1012C000704700000C00002002480168491C0160C2
:1012D000704700000C000020094810B5016841F477
:1012E00000710160016841F480610160052000F037
:1012F00049F80F2000F006F800F018F8002010BDA3
:10130000003C024010B5044607484FF47A7100686B
:10131000B0FBF1F001F0BAF800222146501E00F0B7
:1013200011F8002010BD000008000020704700F0F8
:101330001F02012191404009800000F1E020C0F827
:1013400000117047F0B40E4B1B68C3F30223C3F1C6
:101350000704042C00D904241D1D072D01D20023ED
:1013600000E0DB1E012606FA04F56D1E0D409D40CF
:101370009E40761E164045EA0601F0BC04F0C4BC4F
:101380000CED00E0064A00F0070110684FF6FF037D
:10139000184040EA012003490843106070470000EC
:1013A0000CED00E00000FA052DE9F047DFF85C9154
:1013B00004460E46D9F8000000F00F01F0B2804656
:1013C000B14207D289F80000D9F8000000F00F0000
:1013D000B04271D120784E4F800705D53868A1689A
:1013E00020F0F000084338602078C00756D0484904
:1013F0006068083901281AD002281BD0032819D0A8
:1014000009688907002957DA396821F00301014387
:101410003960FFF753FF0546606841F288310128C3
:1014200011D002281CD003288A4625D032E0096852
:101430008903E7E709688901E4E7FFF73FFF411BFC
:10144000514501D923E08A463868C0F3810001285C
:10145000F3D123E0FFF732FF411B514501D916E0DC
:101460008A463868C0F381000228F3D116E0FFF7FE
:1014700025FF411B51450AD83868C0F38100032875
:10148000F5D10BE0FFF71AFF411B514502D90320AC
:10149000BDE8F087386810F00C0FF3D1D9F80010D0
:1014A000484601F00F01B14208D980F80080006879
:1014B00000F00F00B04201D00120E9E7207840079A
:1014C00005D53868E16820F4E0500843386020789A
:1014D000000706D53868216920F4604040EAC10061
:1014E000386000F04BF83968F02292FAA2F201F06D
:1014F000F001B2FA82F2D140064A515CC840064976
:1015000008600F20FFF7FEFE0020C1E7003C02400C
:101510000838024036F2000808000020084809494F
:10152000006809684FF4E05292FAA2F201F4E05127
:10153000B2FA82F2D140044A515CC84070470000C0
:10154000080000200838024046F20008084809490F
:10155000006809684FF4604292FAA2F201F4604117
:10156000B2FA82F2D140044A515CC8407047000090
:10157000080000200838024046F2000830B519483B
:10158000006810F00C01184812D0441004290ED045
:1015900008290DD1134A121F1168136801F03F0189
:1015A0005D0247F6C07304D5B4FBF1F003E02046BA
:1015B00030BDB0FBF1F01168194093FAA3F3B3FA10
:1015C00083F3D940484311684FF4403292FAA2F2B3
:1015D00001F44031B2FA82F2D140491C4900B0FB1B
:1015E000F1F030BD083802400024F4002DE9F84F36
:1015F00004460078DFF8F4A2BD4DC00748D0DAF801
:1016000000105046C1F38101012908D00068C0F3E1
:10161000810002280AD1281D0068400206D52868EA
:10162000800335D56068002870D031E06068B0F57F
:10163000803F10D0B0F5A02F286810D020F4803063
:101640002860286820F4802028606068A0B1FFF737
:1016500035FE06460CE0286840F48030F4E740F49C
:1016600080202860F7E7FFF729FE801B642873D8E5
:1016700028688003F7D50BE0FFF720FE064604E05C
:10168000FFF71CFE801B6428F1D828688003F7D47C
:101690002078DFF8608280074FF0010B4FF00009DF
:1016A00043D5DAF80010504611F00C0F4FF0F80750
:1016B00009D00068C0F3810002280BD18B48001FBD
:1016C0000068400206D42868800713D5E068012826
:1016D0001CD10FE0E068D0B1C8F800B0FFF7EEFD14
:1016E000064604E0FFF7EAFD801B0228BFD8286801
:1016F0008007F7D5286897FAA7F22169B2FA82F233
:1017000020F0F8009140084328600EE0EBE0C8F8B4
:101710000090FFF7D3FD064604E0FFF7CFFD801BE6
:10172000022819D828688007F7D42078000722D526
:101730006E4F714861696C3779B1C0F800B0FFF73E
:10174000BDFD064604E0FFF7B9FD801B022803D863
:1017500038688007F7D50EE079E0C0F80090FFF711
:10176000ADFD064604E0FFF7A9FD801B02286ED8F8
:1017700038688007F7D42078400750D55B48383068
:10178000016841F08051016000685C4F00F08050BA
:101790000090386840F480703860FFF78FFD06468F
:1017A00004E0FFF78BFD801B022850D83868C00585
:1017B000F7D54E4FA068683701280FD00528386844
:1017C00010D020F001003860386820F00400386044
:1017D000A068B0B1FFF772FD06460EE0386840F031
:1017E0000100F4E740F004003860F7E7FFF766FD1A
:1017F000811B41F2883081426DD838688007F5D569
:101800000DE0FFF75BFD064606E0FFF757FD811B85
:1018100041F2883081425ED838688007F5D4A069EB
:10182000F0B3DAF80010C1F3810102295BD002287D
:10183000484605D0C8F86000FFF740FD04464DE07B
:101840004746C8F86000FFF739FD064605E042E06C
:10185000FFF734FD801B02283DD828688001F7D4AB
:10186000D4E90701084347F6C07292FAA2F2616A0E
:10187000B2FA82F29140A26A4FF0FF3303EB5202B8
:101880004FF4403393FAA3F3B3FA83F39A4011432E
:101890004FF0706292FAA2F20843B2FA82F200E0CC
:1018A0001FE0E16A914008431049091F0860C7F82A
:1018B00060B0FFF703FD044604E0FFF7FFFC001BE8
:1018C000022808D828688001F7D50AE0FFF7F6FC5F
:1018D000001B022802D90320BDE8F88F2868800188
:1018E000F4D40020F8E70120F6E7000008380240B1
:1018F0000038024000004742800E4742007000401E
:10190000FEB5044603200D4684F83400606C0328BD
:1019100020D0B5F5805F1DD0B5F5006F05D045B17D
:10192000A06B40F00060A06309E0204604F0C9FE0F
:1019300002E0204604F09EFEA16B0143A163A06B70
:10194000012658B1216840F2FF50886384F8346062
:101950000120FEBDA06B40F08050E4E7211DD4E9DA
:1019600005070EC9CDE900500297206804F0F9F987
:1019700084F834600020FEBDF0B5426E120E93096B
:101980000B70C2F383034B7002F003028A70426E45
:10199000120CCA70B0F86420120A0A7190F8642020
:1019A0004A71826E4FF6FF73120E03EA0212CA806A
:1019B000826ECB88C2F3074243EA1213CB8002F057
:1019C0000F020A72B0F86820C2F30722D3094B72E3
:1019D000C2F380138B72C2F34013CB72C2F30013B5
:1019E0000B7300244C73456C4FF4007601236DB1EA
:1019F000012D43D0026840F2FF519163816B41F0A9
:101A00008051816380F834300120F0BD9207120DBF
:101A10000A6190F868200D6945EA82020A61C26E87
:101A20000D69120E45EA92150D61C2F3C2050D75DE
:101A300002F007024A75C26EC2F3074255098D755E
:101A4000C2F38205CD759207520F0A76B0F86C206A
:101A50000D7EC2F3072245EAD2150D760D696D1C85
:101A600045650F7EBF1CBD4045650F7A03FA07F739
:101A700087657F0A7D43C0E917561CE090F868200F
:101A80009206920A0A61C26E0D69120E45EA02229E
:101A90000A61C26E0D69C2F3074215430D61B0F8C9
:101AA0006C200D69C2F307226D1C4FEA8525456540
:101AB000C0E916650666C2F3801501F8195F4FEAA2
:101AC00082624FEA52624A7010F86C2F4D7845EAF4
:101AD000D2154D7002F07F028A7042684FEA12629E
:101AE0004FEAD215CD70C2F341150D71C2F38205D4
:101AF0004D714FEA82724FEA12728A7142688D7993
:101B0000C2F3074245EA92158D71C2F34015CD71BB
:101B10000C7202F001024A728288C2F307224FEA75
:101B2000D2148C72C2F38014CC72C2F340140C73C2
:101B3000C2F300144C73C2F381048C7302F00302ED
:101B4000CA7300794FEA500008744B744FF00000DC
:101B5000F0BD426C0A60826C4A60C26C8A60026DA1
:101B6000CA60426D0A61826D4A61C26D8A61006E0F
:101B7000C8610020704738B5002504460095B0F8CC
:101B800050000104206804F065FA28B9002120689B
:101B900004F0E1F80090284610B1A16B0143A16365
:101BA0000098C0F3432038BD70B5040004D094F809
:101BB0003400002510B105E0012070BD25772046D6
:101BC00000F038F8032084F83400204600F008F8CC
:101BD000A5632563012084F83400002070BD000057
:101BE000FEB50025044676200095CDE901502B4630
:101BF0002A462946206804F0B4F80D4E46F8A05F46
:101C0000206804F0C0F8012535600220FFF730FAA3
:101C1000204604F0BEFC20B9204604F047FC002812
:101C200005D084F83450A16B0143A1630120FEBDAF
:101C300000802542F0B5294887B0016841F4006171
:101C40000160006800F400600590244814380168C1
:101C500041F480010160016801F48001059101688F
:101C600041F004010160016801F00401059101687F
:101C700041F008010160016801F008010591016867
:101C800041F0400101600068012400F0400005902F
:101C90004FF40076CDE90064114F032569463846BC
:101CA000CDE90245FFF71AFA012231463846FFF71F
:101CB000FAFA4FF4F850009001A9022081E83100AF
:101CC0000C20049069460748FFF708FA04200090AA
:101CD00069460548FFF702FA07B0F0BD44380240F4
:101CE0000018024000080240000C02402DE9F04FAD
:101CF00087B09B4616460D460446109FFFF7DEFA56
:101D000081463DB194F83400012807D0A06B40F023
:101D100000500DE0A06B40F0006009E00020A063DF
:101D2000E26D06EB0B01914204D9A06B40F000700C
:101D3000A06384E0032184F8341021688046C862DF
:101D4000606C012800D076024FF40071206804F026
:101D500069F840F2FF5A012140B12368C3F838A066
:101D6000A26B0243A26384F8341068E04FF0FF30A6
:101D700000904FEA4B200190902002900220CDE984
:101D80000308059188466946206803F0CEFFBBF141
:101D9000010F06D9022020633146206804F0CEF8F6
:101DA00005E0C4F830803146206804F0DFF838B32D
:101DB0002268C2F838A0A16B0143A1633DE0406BEB
:101DC000000409D50026206803F0E1FF45F826004D
:101DD000761C082EF7D320352FB1FFF76FFAA0EB52
:101DE0000900B8420CD32168C1F838A0A06B40F0BC
:101DF0000040A06384F83480032007B0BDE8F08F72
:101E00002068416B40F22A321142D8D0416BC9059B
:101E100009D5BBF1010F06D9616C032903D004F089
:101E200049F90028C4D12068416B090709D5C0F8D9
:101E300038A0A06B40F0080025E084F83480012031
:101E4000DBE7416B890705D5C0F838A0A06B40F0EF
:101E5000020018E0416B890617D5C0F838A0A06BC6
:101E600040F020000FE003F092FF01C52FB1FFF713
:101E700025FAA0EB0900B84207D32168C1F838A0C1
:101E8000A06B40F00040A063D7E72068416B890257
:101E9000E9D42168C1F838A084F834800020ACE788
:101EA0002DE9F04F87B09A4615460E460446DDF8F8
:101EB00040B0FFF703FA06903EB194F834000128D1
:101EC00007D0A06B40F000500DE0A06B40F0006028
:101ED00009E00020A063E26D05EB0A01914204D9FC
:101EE000A06B40F00070A0632EE0032184F8341052
:101EF00021680020C862606C012800D06D024FF498
:101F00000071206803F08EFF40F2FF584FF0010986
:101F1000002860D1BAF1010F06D92020206329469C
:101F2000206804F0E1F805E01020206329462068CD
:101F300004F0F2F807000BD02168C1F83880A06BDC
:101F400038436AE084F83490012007B0BDE8F08F90
:101F50004FF0FF3000904FEA4A200190902002900D
:101F60000020CDE9040903906946206803F0DDFEF6
:101F70001FE0406B400409D5002506EB8501206871
:101F800003F018FF6D1C082DF7D32036BBF1000FAE
:101F900005D0FFF793F90699411A594509D32168ED
:101FA000C1F83880A06B3843A06384F834900320D4
:101FB000CBE72068416B40F21A321142D9D0416B15
:101FC000C9050FD5BAF1010F0CD9616C032909D0ED
:101FD00004F070F830B12268C2F83880A16B014378
:101FE000A163AFE72068416B090705D5C0F83880C9
:101FF000A06B40F0080010E0416B890705D5C0F8E0
:102000003880A06B40F0020007E0416BC0F83880D8
:10201000C90604D5A06B40F01000A06392E784F8D5
:102020003490002091E770B5040004D094F851007A
:10203000002510B106E0012070BD84F85050204604
:1020400000F038F8022084F851002068016821F07F
:1020500040010160D4E901010843D4E903121143AE
:10206000084361690843218B01F400710843E16969
:102070000843216A0843A16A084321680860A069EF
:10208000042101EA1040616A084321684860A06A9F
:10209000B0F5005F02D12168E06A08612068C1697B
:1020A00021F40061C1616565012084F851000020C0
:1020B00070BD0000114800B5016887B041F0020111
:1020C0000160006800F0020005900C4814300168BF
:1020D00041F4805101600068012100F480500590B6
:1020E000382000900220CDE90101039005200490E2
:1020F00069460348FEF7F2FF07B000BD30380240E2
:10210000000402402DE9F84F04460020DDF8289035
:102110009B4616460D46ADF80000804694F85000E8
:10212000012701280ED0012084F85000FFF7C6F8DF
:10213000824694F85100616801280CD0B1F5827F85
:1021400007D102E00220BDE8F88FA16809B9042890
:1021500001D00220EBE045B13EB1BBF1000F04D04D
:1021600094F85100012802D004E00120DFE00520AE
:1021700084F8510000206065A663A4F83EB0A4F87E
:102180003CB02563A4F836B0A4F834B02064606491
:10219000A06A4FF4005B58450AD1206801684DF6EB
:1021A000FF72114001602068016841F40051016034
:1021B00020680168490603D4016841F040010160CC
:1021C000E068B0F5006F606804D0E8B3E08E0128E5
:1021D00043D078E010B1E08E012837D1216835F87E
:1021E000020BC860E08E401EE0862FE0B7B1E08EA3
:1021F000A0B120688168890710D535F8021BC1603D
:10220000E08E401EE086E08E002738B9A06A58456F
:1022100004D12068016841F480510160E08F50B121
:1022200020688168C90706D0C06826F8020BE08FD5
:10223000401EE0870127B9F1FF3F07D0FFF73EF8C6
:10224000A0EB0A01494500E007E06FD2E08E0028CC
:10225000CCD1E08F0028C9D13BE0216815F8010BF3
:102260000873E08E401EE0862DE0B7B1E08EA0B18D
:1022700020688168890710D515F8011B0173E08E6D
:10228000401EE086E08E002738B9A06A584504D188
:102290002068016841F480510160E08F50B12068EE
:1022A0008168C90706D0C06806F8010BE08F401EA0
:1022B000E0870127B9F1FF3F05D0FEF7FFFFA0EB54
:1022C0000A01494532D2E08E0028CED1E08F0028A5
:1022D000CBD1A06A584513D101224B461146204666
:1022E000CDF800A004F096FA20B1606D40F0020035
:1022F00060651BE02068C068ADF80000BDF8000014
:1023000020688168C90608D5616D41F002016165E8
:102310004FF6EF7181604FF001084B460122022118
:102320002046CDF800A004F075FA10B103208046D5
:1023300010E052464946204604F05CFA20B12020C5
:102340004FF00108606505E0A06818B92068C16811
:1023500080680090012084F85100002084F850002B
:102360004046F0E670B515460E46040003D094F8DA
:10237000490010B107E0012070BD002084F848003A
:10238000204600F01BF804F108012068FEF748FC25
:102390003146A2682068FEF76DFCD4E901022946A7
:1023A000236BFEF71DFCA168206850F8212042F045
:1023B000010240F82120002070BD0000284810B51F
:1023C000016886B041F001010160006800F0010081
:1023D000059023480838016841F008010160016850
:1023E00001F008010591016841F0100101600168E8
:1023F00001F010010591016841F0200101600168C0
:1024000001F020010591016841F040010160006880
:10241000694600F0400005904CF2337000900220B5
:10242000019001200290032003900C2004900D489D
:10243000FEF754FE4FF68070009069460A48FEF79A
:102440004DFE4FF48054694608480094FEF746FE5E
:10245000694607480094FEF741FE06B010BD000033
:1024600038380240000C02400010024000140240C4
:10247000001802404FF0E0210428086903D020F042
:1024800004000861704740F00400FAE710B5401EF0
:10249000B0F1807F01D3012010BD4FF0E0246061D6
:1024A0000F21601703F030FC0020A061072020619D
:1024B000002010BD10B5040003D094F8390010B10D
:1024C00007E0012010BD002084F83800204600F00D
:1024D0000CF8022084F83900211D206804F0A6FBC6
:1024E000012084F83900002010BD70470168CA68D7
:1024F00042F00102CA600068016841F00101016018
:1025000000207047704710F8391F40780843704723
:1025100070B5026804461068D168536910F00F0F57
:1025200051D003F0010501F4907635435DD0C20728
:1025300005D0CA0503D5E26B42F00102E26342070F
:1025400005D5DA0703D0E26B42F00202E2638207AC
:1025500005D5DA0703D0E26B42F00402E26302071A
:1025600005D5DA0703D0E26B42F00802E263E26BC2
:10257000002A34D0800604D5880602D5204604F00F
:10258000F5FB20684069E16BC0F3801001F00801A1
:102590000143204624D004F0DBFB20684169490652
:1025A0001AD5416921F040014161606BA0B11B491E
:1025B0000165606BFEF74AFD002810D0606B016D6D
:1025C000BDE87040084783060FD58B060DD5204621
:1025D000BDE8704004F0CABB2046FFF793FF70BD12
:1025E000FFF790FF0020E06370BD030606D50B06E1
:1025F00004D52046BDE8704004F054BD4006F3D534
:102600004806F1D5D168204621F04001D160202153
:1026100084F8391000F0C4F870BD0000416D000866
:1026200070B5040004D094F83900002510B106E01C
:10263000012070BD84F83850204600F023F8242093
:1026400084F839002068C16821F40051C160204637
:1026500004F0D2FB2068016921F4904101612068F7
:10266000416921F02A0141612068C16841F40051AB
:10267000C160E563202084F8390084F83A00002026
:1026800070BD000010B500681A4986B088422FD18D
:102690001948016841F001010160006800F0010083
:1026A000059015481430016841F010010160006880
:1026B000012100F0100005904FF4007000900220FE
:1026C000CDE90101039007200C4C04906946204697
:1026D000FEF704FD2115009169462046FEF7FEFC39
:1026E0002520FEF724FE032211462520FEF72AFEB0
:1026F00006B010BD0010014030380240000002401A
:1027000090F83A30202B1DD1D1B1CAB190F83830B1
:10271000012B17D081628285C2850021C1632222EC
:1027200080F83A2080F8381001684A6942F00102C6
:102730004A610068C16841F49071C160002070472F
:10274000012070470220704730B500681149884267
:102750000CD1114A5088010408D411464404097868
:102760004FF0000306D50A2901D0538030BD40F454
:1027700000400DE00D2909D0C0F30D04074D401CA9
:1027800080B229555080C728EFD830BD40F4804032
:10279000508030BD00100140140000206002002075
:1027A0007047000001A0FDF717FEFEE7BDF8C8EB7B
:1027B000486172646661756C7421210D0A00000025
:1027C000F0B5184887B00024016841F001010160AC
:1027D000016801F001010591016841F010010160FB
:1027E0000068012600F01000059002270325CDE9BE
:1027F0000064CDE9027569460B48FEF76FFC0820BE
:1028000003958DE85100094E69463046FEF766FC97
:10281000102003958DE8910069463046FEF75EFC76
:1028200007B0F0BD30380240000002400010024006
:102830002DE9F0410126254C254F264D012818D0C1
:10284000207880B110212846FEF728FD012812D0FB
:1028500001213846FEF722FD01280CD00821284628
:10286000FEF71CFD38B110212846FEF717FDF0B128
:1028700029E02670E6E70A2005F07EFB00202070A4
:1028800010212846FEF70AFD01280CD00121384608
:10289000FEF704FD012805D008212846FEF7FEFCBE
:1028A00018B110E00420BDE8F0810220FBE701210F
:1028B0003846FEF7F3FC30B908212846FEF7EEFC57
:1028C000012800D126700020EDE700002400002040
:1028D000000002400010024070B506460A4800247D
:1028E0000188458820464D43214603F02DF803F02A
:1028F000D1F9B1B24FF0D84002E0A0F88010641CCA
:10290000AC42FAD370BD0000B80300202DE9F047B7
:102910008246A2EB0A00401C0E4685B2981B401C62
:1029200087B200244FF0D849DDF8208015E0301937
:1029300081B2504603F008F803F0ACF90020494694
:1029400007E004FB050338F81320A1F88020401CA1
:1029500080B2A842F5D3641CA4B2BC42E7D3BDE860
:10296000F08700002DE9F04F374B2C27194698715E
:102970002B2589884FF4305A4FF4285B41F6631EAB
:102980002A264FF0F00845F210594FF448744FF4DE
:10299000A07C4FF4F07260B1A3F800C0A3F80280ED
:1029A000494530D1A3F808A0A3F80AB028029881BD
:1029B0003EE0A3F80080A3F802C0494507D1A3F880
:1029C00008A0A3F80AB04FF42C50988104E0714598
:1029D0001F8104D15D819E811A805C8001E05E814F
:1029E0009D81A1F5A640103803D0A1F5EE409638A0
:1029F00002D1A3F800C05A80A1F5184006381DD1B5
:102A00001A805C801AE071450FD0A1F51840063895
:102A10000BD01F815E819D81A1F5A64010380AD0A0
:102A2000A1F5EE40963806D008E01F815E819D81B9
:102A30001C805A80F0E71A80A3F802C0BDE8F04F6E
:102A4000002002F0AFBE0000B80300202DE9F041E5
:102A5000314D90460C460246060AA9882846270AA8
:102A60004089A1F5AA43103B0FD0A1F5C853633BA1
:102A700024D003F003F9304603F0F4F8D0B203F0A9
:102A8000F1F8A88903F0FAF836E003F0F7F83046D9
:102A900003F0E8F86889401C80B203F0EFF8D0B288
:102AA00003F0E0F8A88903F0E9F8384603F0DAF813
:102AB000A889401C80B203F0E1F820E0A97919B997
:102AC0002988891A491E8AB203F0D8F8160A3046B6
:102AD00003F0C8F8D0B203F0C5F8304603F0C2F8EE
:102AE000D0B203F0BFF8A88903F0C8F8384603F065
:102AF000B9F8E0B203F0B6F8384603F0B3F8E0B244
:102B000003F0B0F84FF0D841288921F87E0FA1F8E2
:102B10000280BDE8F0810000B80300202DE9F043F9
:102B20001F468146A2EB0900079B401C0C4686B25B
:102B30009DB24FF0D84810E02146484602F004FF0D
:102B400003F0A8F80020414603E0A1F88050401CA3
:102B500080B2B042F9D3641CA4B2BC42ECD9BDE847
:102B6000F08300002DE9F04FFF4895B00024016884
:102B700041F00201016000680EA900F0020013900C
:102B80004FF400400E9001200F9010900320119000
:102B9000F648FEF7A3FAF6484FF020416A46016076
:102BA000F44941600621C0E902141021C0E9044142
:102BB00084610902C461C0E909418900C0E90B418F
:102BC00089014463C0E90E410F20CDE907043C2090
:102BD00009900920CDE9000408200D940290039487
:102BE00007A90694E248FFF7BDFB322005F0C4F9BF
:102BF000D32003F043F802F061FDDD4D5035A8808D
:102C000002F05CFDA88002F059FD4FF6FF7A0AEA57
:102C10000020A88002F052FDA98845F21036084332
:102C2000A0F51341A88045F2105447F2967749F673
:102C3000060841F6631941397ED0042003F01EF8DE
:102C400002F03CFDA88002F039FDA88002F036FDBC
:102C50000AEA00205246A88002F030FDA988084305
:102C6000A0F50541A880523967D0A0F5EE41893919
:102C700062D0D42003F002F802F020FDA88002F018
:102C80001DFDA88002F01AFD02EA0020A88002F0D3
:102C900015FDA9880843A880B0427DD0D32002F05A
:102CA000EDFF02F00BFDA88002F008FDA88002F005
:102CB00005FD02EA00209246A88002F0FFFCA988E8
:102CC0000843A880B84267D055214FF4704002F005
:102CD000EBFFAA214FF2010002F0E6FF52214FF272
:102CE000020002F0E1FF08214FF2030002F0DCFFD6
:102CF00001214FF2040002F0D7FF4FF4454002F0EB
:102D0000BDFF02F0DBFC0AEA0020A8804CF2015073
:102D100002F0B4FF02F0D2FCA9880843A880052085
:102D200005F02AF9A888B0F5004F7CD0A04233D036
:102D3000D32002F0A3FF01E027E027E002F0BEFC71
:102D4000A88002F0BBFCA88002F0B8FC0AEA0020D0
:102D50005246A88002F0B2FCA9880843A8804045EA
:102D60001AD0A12002F08AFF02F0A8FCA88002F08D
:102D7000A5FC02EA0020A88002F0A0FCA988084374
:102D8000A0F5AE41A880613904D005E047F2897012
:102D9000A88001E0A5F80490A98877A0FDF71CFBA6
:102DA000A88849F2413B58457ED1CF2002F066FF0A
:102DB000002002F057FFC12002F054FF302002F043
:102DC00051FFED2002F05AFF642002F04BFF032078
:102DD00002F048FF122002F045FF812002F042FF7E
:102DE000E82002F04BFF852002F03CFF102002F0AB
:102DF00039FF7A2002F036FFCB2002F03FFF392066
:102E000002F030FF2C2002F02DFF002002F02AFFFC
:102E1000342002F027FF022002F024FFF72002F006
:102E20002DFF202000E0E9E002F01CFFEA2002F084
:102E300025FF002002F016FF002002F013FFC02043
:102E400002F01CFF1B2002F00DFFC12002F016FF54
:102E5000012002F007FFC52002F010FF302002F031
:102E600001FF302002F0FEFEC72002F007FFB7206E
:102E700002F0F8FE362002F001FF482002F0F2FED8
:102E80003A2002F0FBFE552002F0ECFEB12002F0E9
:102E9000F5FE002002F0E6FE1A2002F0E3FEB62066
:102EA00002F0ECFE0A2000E0AAE002F0DBFEA22025
:102EB00002F0D8FEF22002F0E1FE002002F0D2FE85
:102EC000262002F0DBFE012002F0CCFEE02002F022
:102ED000D5FE0F2002F0C6FE2A2002F0C3FE2820F5
:102EE00002F0C0FE082002F0BDFE0E2002F0BAFE85
:102EF000082002F0B7FE542002F0B4FEA92002F030
:102F0000B1FE432002F0AEFE0A2002F0ABFE0F201D
:102F100002F0A8FE002002F0A5FE002002F0A2FEB2
:102F2000002002F09FFE002002F09CFEE12002F053
:102F3000A5FE002002F096FE152002F093FE172059
:102F400002F090FE072002F08DFE112002F08AFEB2
:102F5000062002F087FE2B2002F084FE562002F0AD
:102F600081FE3C2010E000003038024000040240A6
:102F700068030020040100A0204C43442049443A47
:102F800025780D0A0000000002F06CFE052002F01A
:102F900069FE102002F066FE0F2002F063FE3F2063
:102FA00002F060FE3F2002F05DFE0F2002F05AFEAC
:102FB0002B2002F063FE002002F054FE002002F0FD
:102FC00051FE012002F04EFE3F2002F04BFE2A206F
:102FD00002F054FE002002F045FE002002F042FE06
:102FE000002002F03FFEEF2002F03CFE112002F034
:102FF00045FE782004F0C0FF01F052B8AC80CBE66B
:10300000A0F5EE4189397CD0B04241F04C80ED20F2
:1030100002F034FE012002F025FEFE2002F022FE26
:10302000EE2002F02BFEDE2002F01CFE212002F03A
:1030300019FEF12002F022FE012002F013FEDF2033
:1030400002F01CFE102002F00DFEC42002F016FE5D
:103050008F2002F007FEC62002F010FE002002F0D2
:1030600001FEE22002F0FEFDE22002F0FBFDE22084
:1030700002F0F8FDBF2002F001FEAA2002F0F2FDEE
:10308000B02002F0FBFD0D2002F0ECFD002002F06C
:10309000E9FD0D2002F0E6FD002002F0E3FD112025
:1030A00002F0E0FD002002F0DDFD192002F0DAFD63
:1030B000002002F0D7FD212002F0D4FD002002F014
:1030C000D1FD2D2002F0CEFD002002F0CBFD3D20F1
:1030D00002F0C8FD002002F0C5FD5D2002F0C2FD37
:1030E000002002F0BFFD5D2002F0BCFD002002F0D8
:1030F000B9FDB12002F0C2FD802002F0B3FD002036
:1031000000E0FCE302F0AEFD8B2002F0ABFD0020FE
:1031100002F0A8FD962002F0A5FD002002F0A2FD1D
:10312000B22002F0ABFD002002F09CFD002002F076
:1031300099FD022002F096FD002002F093FD03208D
:1031400002F090FD002002F08DFDB32002F096FD0C
:10315000002002F087FD002002F084FD002002F034
:1031600081FD002002F07EFD002002F07BFD0020AA
:1031700002F078FD002002F075FD002002F072FDE3
:10318000002002F06FFD002002F06CFD002002F034
:1031900069FD002002F066FD002002F063FD0020C2
:1031A00002F060FD002002F05DFD002002F05AFDFB
:1031B000002002F057FD002002F054FD002002F034
:1031C00051FD002002F04EFD002002F04BFD0020DA
:1031D00002F048FD002002F045FD002002F042FD13
:1031E000B42002F04BFD8B2002F03CFD002002F0E9
:1031F00039FD962002F036FD002002F033FDA120BB
:1032000002F030FD002002F02DFDB52002F036FD69
:10321000022002F027FD002002F024FD032002F02E
:1032200021FD002002F01EFD042002F01BFD002005
:1032300002F018FDB62002F021FD002002F012FD80
:10324000002002F00FFDB72002F018FD002002F070
:1032500009FD002002F006FD3F2002F003FD0020E2
:1032600002F000FD5E2002F0FDFC002002F0FAFCFE
:10327000642002F0F7FC002002F0F4FC8C2002F045
:10328000F1FC002002F0EEFCAC2002F0EBFC002090
:1032900002F0E8FCDC2002F0E5FC002002F0E2FC99
:1032A000702002F0DFFC002002F0DCFC902002F035
:1032B000D9FC002002F0D6FCEB2002F0D3FC002069
:1032C00002F0D0FCDC2002F0CDFC002002F0CAFCB1
:1032D000B82002F0D3FC002002F0C4FC002002F071
:1032E000C1FC002002F0BEFC002002F0BBFC00206C
:1032F00002F0B8FC002002F0B5FC002002F0B2FCA5
:10330000002002F0AFFCBA2002F0B8FC242002F04A
:10331000A9FC002002F0A6FC002002F0A3FC002083
:1033200002F0A0FCC12002F0A9FC202002F09AFCCF
:10333000002002F097FC542002F094FC002002F0E0
:1033400091FCFF2002F08EFC002002F08BFCC220DA
:1033500002F094FC0A2002F085FC002002F082FCBE
:10336000042002F07FFC002002F07CFCC32002F06D
:1033700085FC3C2002F076FC002002F073FC3A2031
:1033800002F070FC002002F06DFC392002F06AFCB3
:10339000002002F067FC372002F064FC002002F0FD
:1033A00061FC3C2002F05EFC002002F05BFC362059
:1033B00002F058FC002002F055FC322002F052FCD2
:1033C000002002F04FFC2F2002F04CFC002002F005
:1033D00049FC2C2002F046FC002002F043FC29208E
:1033E00002F040FC002002F03DFC262002F03AFCF6
:1033F000002002F037FC242002F034FC002002F010
:1034000031FC242002F02EFC002002F02BFC2320B3
:1034100002F028FC002002F025FC3C2002F022FCF7
:10342000002002F01FFC362002F01CFC002002F0FD
:1034300019FC322002F016FC002002F013FC2F20B1
:1034400002F010FC002002F00DFC2C2002F00AFC1F
:10345000002002F007FC292002F004FC002002F00A
:1034600001FC262002F0FEFB002002F0FBFB2420E2
:1034700002F0F8FB002002F0F5FB242002F0F2FB42
:10348000002002F0EFFB232002F0ECFB002002F012
:10349000E9FBC42002F0F2FB622002F0E3FB002013
:1034A00002F0E0FB052002F0DDFB002002F0DAFB79
:1034B000842002F0D7FB002002F0D4FBF02002F0C1
:1034C000D1FB002002F0CEFB182002F0CBFB002045
:1034D00002F0C8FBA42002F0C5FB002002F0C2FBF2
:1034E000182002F0BFFB002002F0BCFB502002F0CD
:1034F000B9FB002002F0B6FB0C2002F0B3FB002069
:1035000002F0B0FB172002F0ADFB002002F0AAFB96
:10351000952002F0A7FB002002F0A4FBF32002F0AC
:10352000A1FB002002F09EFBE62002F09BFB0020A6
:1035300002F098FBC52002F0A1FB322002F092FBC2
:10354000002002F08FFB442002F08CFB002002F0F0
:1035500089FB652002F086FB002002F083FB7620C9
:1035600002F080FB002002F07DFB882002F07AFB55
:10357000002002F077FBC62002F080FB202002F042
:1035800071FB002002F06EFB172002F06BFB0020A5
:1035900002F068FB012002F065FB002002F062FBF4
:1035A000C72002F06BFB002002F05CFB002002F061
:1035B00059FB002002F056FB002002F053FBC8200C
:1035C00002F05CFB002002F04DFB002002F04AFB01
:1035D000002002F047FB002002F044FBC92002F06B
:1035E0004DFB002002F03EFB002002F03BFB0020E0
:1035F00002F038FB002002F035FB002002F032FB25
:10360000002002F02FFB002002F02CFB002002F033
:1036100029FB002002F026FB002002F023FB002003
:1036200002F020FB002002F01DFB002002F01AFB3C
:10363000002002F017FB002002F014FB002002F033
:1036400011FBE02002F01AFB162002F00BFB002019
:1036500002F008FB1C2002F005FB002002F002FB38
:10366000212002F0FFFA002002F0FCFA362002F0DE
:10367000F9FA002002F0F6FA462002F0F3FA0020F0
:1036800002F0F0FA522002F0EDFA002002F0EAFA1D
:10369000642002F0E7FA002002F0E4FA7A2002F057
:1036A000E1FA002002F0DEFA8B2002F0DBFA0020C3
:1036B00002F0D8FA992002F0D5FA002002F0D2FAEE
:1036C000A82002F0CFFA002002F0CCFAB92002F0D4
:1036D000C9FA002002F0C6FAC42002F0C3FA0020A2
:1036E00002F0C0FACA2002F0BDFA002002F0BAFAD5
:1036F000D22002F0B7FA002002F0B4FAD92002F08A
:10370000B1FA002002F0AEFAE02002F0ABFA00209D
:1037100002F0A8FAF32002F0A5FA002002F0A2FAC3
:10372000E12002F0ABFA162002F09CFA002002F031
:1037300099FA1C2002F096FA002002F093FA222057
:1037400002F090FA002002F08DFA362002F08AFA98
:10375000002002F087FA452002F084FA002002F0EF
:1037600081FA522002F07EFA002002F07BFA6420F7
:1037700002F078FA002002F075FA7A2002F072FA6C
:10378000002002F06FFA8B2002F06CFA002002F0A9
:1037900069FA992002F066FA002002F063FAA82084
:1037A00002F060FA002002F05DFAB92002F05AFA45
:1037B000002002F057FAC42002F054FA002002F070
:1037C00051FACA2002F04EFA002002F04BFAD22041
:1037D00002F048FA002002F045FAD82002F042FA3E
:1037E000002002F03FFAE02002F03CFA002002F054
:1037F00039FAF32002F036FA002002F033FAE22020
:1038000002F03CFA052002F02DFA002002F02AFA1C
:103810000B2002F027FA002002F024FA1B2002F00D
:1038200021FA002002F01EFA342002F01BFA0020D8
:1038300002F018FA442002F015FA002002F012FA01
:103840004F2002F00FFA002002F00CFA612002F083
:1038500009FA002002F006FA792002F003FA0020AB
:1038600002F000FA882002F0FDF9002002F0FAF9D7
:10387000972002F0F7F9002002F0F4F9A62002F0F8
:10388000F1F9002002F0EEF9B72002F0EBF9002088
:1038900002F0E8F9C22002F0E5F9002002F0E2F9B6
:1038A000C72002F0DFF9002002F0DCF9D12002F09D
:1038B000D9F9002002F0D6F9D62002F0D3F9002081
:1038C00002F0D0F9DD2002F0CDF9002002F0CAF9B3
:1038D000F32002F0C7F9002002F0C4F9E32002F05F
:1038E000CDF9052002F0BEF9002002F0BBF90A2054
:1038F00002F0B8F9002002F0B5F91C2000E000E366
:1039000002F0B0F9002002F0ADF9332002F0AAF97C
:10391000002002F0A7F9442002F0A4F9002002F0F0
:10392000A1F9502002F09EF9002002F09BF96220DC
:1039300002F098F9002002F095F9782002F092F94F
:10394000002002F08FF9882002F08CF9002002F0AC
:1039500089F9972002F086F9002002F083F9A62069
:1039600002F080F9002002F07DF9B72002F07AF928
:10397000002002F077F9C22002F074F9002002F072
:1039800071F9C72002F06EF9002002F06BF9D12026
:1039900002F068F9002002F065F9D52002F062F922
:1039A000002002F05FF9DD2002F05CF9002002F057
:1039B00059F9F32002F056F9002002F053F9E420FF
:1039C00002F05CF9012002F04DF9002002F04AF902
:1039D000012002F047F9002002F044F9022002F031
:1039E00041F9002002F03EF92A2002F03BF90020C4
:1039F00002F038F93C2002F035F9002002F032F9EB
:103A00004B2002F02FF9002002F02CF95D2002F08B
:103A100029F9002002F026F9742002F023F9002091
:103A200002F020F9842002F01DF9002002F01AF9BA
:103A3000932002F017F9002002F014F9A22002F0FE
:103A400011F9002002F00EF9B32002F00BF900206A
:103A500002F008F9BE2002F005F9002002F002F998
:103A6000C42002F0FFF8002002F0FCF8CD2002F0A4
:103A7000F9F8002002F0F6F8D32002F0F3F8002065
:103A800002F0F0F8DD2002F0EDF8002002F0EAF894
:103A9000F32002F0E7F8002002F0E4F8E52002F05D
:103AA000EDF8002002F0DEF8002002F0DBF8002044
:103AB00002F0D8F8002002F0D5F8022002F0D2F887
:103AC000002002F0CFF8292002F0CCF8002002F00C
:103AD000C9F83C2002F0C6F8002002F0C3F84B20E1
:103AE00002F0C0F8002002F0BDF85D2002F0BAF844
:103AF000002002F0B7F8742002F0B4F8002002F0C1
:103B0000B1F8842002F0AEF8002002F0ABF8932068
:103B100002F0A8F8002002F0A5F8A22002F0A2F816
:103B2000002002F09FF8B32002F09CF8002002F081
:103B300099F8BE2002F096F8002002F093F8C42015
:103B400002F090F8002002F08DF8CD2002F08AF803
:103B5000002002F087F8D32002F084F8002002F061
:103B600081F8DC2002F07EF8002002F07BF8F320E0
:103B700002F078F8002002F075F8E62002F07EF8F6
:103B8000112002F06FF8002002F06CF8342002F0EF
:103B900069F8002002F066F8562002F063F8002071
:103BA00002F060F8762002F05DF8002002F05AF88A
:103BB000772002F057F8002002F054F8662002F057
:103BC00051F8002002F04EF8882002F04BF8002057
:103BD00002F048F8992002F045F8002002F042F87F
:103BE000BB2002F03FF8002002F03CF8992002F0E0
:103BF00039F8002002F036F8662002F033F8002091
:103C000002F030F8552002F02DF8002002F02AF8DA
:103C1000552002F027F8002002F024F8452002F099
:103C200021F8002002F01EF8432002F01BF80020CB
:103C300002F018F8442002F015F8002002F012F803
:103C4000E72002F01BF8322002F00CF8002002F00E
:103C500009F8552002F006F8002002F003F876205B
:103C600002F000F8002001F0FDFF662001F0FAFFED
:103C7000002001F0F7FF672001F0F4FF002001F0C1
:103C8000F1FF672001F0EEFF002001F0EBFF87203D
:103C900001F0E8FF002001F0E5FF992001F0E2FFCC
:103CA000002001F0DFFFBB2001F0DCFF002001F06D
:103CB000D9FF992001F0D6FF002001F0D3FF772033
:103CC00001F0D0FF002001F0CDFF442001F0CAFF39
:103CD000002001F0C7FF562001F0C4FF002001F0D2
:103CE000C1FF232001F0BEFF002001F0BBFF332005
:103CF00001F0B8FF002001F0B5FF452001F0B2FF50
:103D0000002001F0AFFFE82001F0B8FF002001F033
:103D1000A9FF002001F0A6FF992001F0A3FF0020D9
:103D200001F0A0FF872001F09DFF002001F09AFF25
:103D3000882001F097FF002001F094FF772001F028
:103D400091FF002001F08EFF662001F08BFF002024
:103D500001F088FF882001F085FF002001F082FF3C
:103D6000AA2001F07FFF002001F07CFFBB2001F0C2
:103D700079FF002001F076FF992001F073FF002009
:103D800001F070FF662001F06DFF002001F06AFF76
:103D9000552001F067FF002001F064FF552001F07D
:103DA00061FF002001F05EFF442001F05BFF002076
:103DB00001F058FF442001F055FF002001F052FFB0
:103DC000552001F04FFF002001F04CFFE92001F0E9
:103DD00055FFAA2001F046FF002001F043FF00201C
:103DE00001F040FF002001F03DFF002001F046FF00
:103DF000AA2001F037FFCF2001F040FF002001F0A2
:103E000031FF002001F02EFF002001F02BFF0020E9
:103E100001F028FF002001F025FF002001F022FF23
:103E2000002001F01FFF002001F01CFF002001F026
:103E300019FF002001F016FF002001F013FF002001
:103E400001F010FF002001F00DFF002001F00AFF3B
:103E5000002001F007FF002001F004FF002001F026
:103E600001FFF02001F00AFF002001F0FBFE5020CE
:103E700001F0F8FE002001F0F5FE002001F0F2FE56
:103E8000002001F0EFFEF32001F0F8FE002001F029
:103E9000E9FEF92001F0F2FE062001F0E3FE102019
:103EA00001F0E0FE292001F0DDFE002001F0DAFE45
:103EB0003A2001F0E3FE552001F0D4FE112001F07C
:103EC000DDFE642004F058F8292001F0D7FE3520EB
:103ED00001F0D4FE002001F0C5FE512001F0CEFE1D
:103EE000FF2001F0BFFE532001F0C8FE2C2001F09E
:103EF000B9FE552001F0C2FE822001F0B3FE01F0B0
:103F0000D6BA112001F0BAFE782004F035F8362038
:103F100001F0B4FE002001F0A5FE3A2001F0AEFE53
:103F2000052001F09FFEB22001F0A8FE0C2001F058
:103F300099FE0C2001F096FE002001F093FE332044
:103F400001F090FE332001F08DFEB72001F096FEC7
:103F5000352001F087FEBB2001F090FE322001F0F9
:103F600081FEC02001F08AFE0C2001F07BFEC22001
:103F700001F084FE012001F075FEC32001F07EFEF9
:103F8000102001F06FFEC42001F078FE202001F027
:103F900069FEC62001F072FE0F2001F063FED02002
:103FA00001F06CFEA42001F05DFEA12001F05AFE9C
:103FB000E02001F063FED02001F054FE002001F06B
:103FC00051FE022001F04EFE072001F04BFE0A20B8
:103FD00001F048FE282001F045FE322001F042FEAB
:103FE000442001F03FFE422001F03CFE062001F09B
:103FF00039FE0E2001F036FE122001F033FE1420AF
:1040000001F030FE172001F02DFEE12001F036FE18
:10401000D02001F027FE002001F024FE022001F054
:1040200021FE072001F01EFE0A2001F01BFE2820C1
:1040300001F018FE312001F015FE542001F012FEAF
:10404000472001F00FFE0E2001F00CFE1C2001F0B5
:1040500009FE172001F006FE1B2001F003FE1E20C2
:1040600001F000FE2A2001F009FE002001F0FAFD17
:10407000002001F0F7FD002001F0F4FDEF2001F039
:10408000F1FD2B2001F0FAFD002001F0EBFD0020F6
:1040900001F0E8FD012001F0E5FD3F2001F0E2FD27
:1040A000292001F005BAA0427ED155214FF470407D
:1040B00001F0FAFDAA214FF2010001F0F5FD5221B5
:1040C0004FF2020001F0F0FD08214FF2030001F071
:1040D000EBFD4FF204030121184601F0E5FD0D212F
:1040E0004FF4304001F0E0FD0D214BF2010001F0F2
:1040F000DBFD0D214BF2020001F0D6FD34214FF41F
:10410000364001F0D1FD34214BF2016001F0CCFDCD
:1041100034214BF2026001F0C7FD0D214FF4314014
:1041200001F0C2FD0D214BF2011001F0BDFD0D218A
:104130004BF2021001F0B8FD34214FF4374001F08A
:10414000B3FD34214BF2017001F0AEFD34214BF28E
:10415000027001F0A9FD00214FF4324001F0A4FDEE
:1041600000214BF2012001F09FFD00214BF20220C3
:1041700001F09AFD24214FF4384001F095FD2421EF
:104180004BF6010001F090FD24214BF6020001F0F6
:104190008BFD01214FF43F4001F086FD0F214FF4CC
:1041A000334001F081FD00E0FDE30F214BF20130CF
:1041B00001F07AFD0F214BF2023001F075FD342140
:1041C0004FF4394001F070FD34214BF6011001F03D
:1041D0006BFD34214BF6021001F066FD08214FF40F
:1041E000354001F061FD08214BF2015001F05CFD0A
:1041F00008214BF2025001F057FD03214FF44240D9
:1042000001F052FD24214FF43A4001F04DFD2421EC
:104210004BF6012001F048FD24214BF6022001F06D
:1042200043FD00214FF43C4001F03EFD78214BF668
:10423000014001F039FD00214BF6024001F034FD50
:1042400000214FF43D4001F02FFD78214BF6015045
:1042500001F02AFD00214BF6025001F025FD00215E
:104260004FF43E4001F020FD64214BF6016001F067
:104270001BFD00214FF4514001F016FD33214DF29A
:10428000011001F011FD00214DF2021001F00CFDB2
:1042900034214DF2031001F007FD00214DF204100E
:1042A00001F002FD3A214DF2051001F0FDFC002164
:1042B0004DF2061001F0F8FC4A214DF2071001F012
:1042C000F3FC00214DF2081001F0EEFC5C214DF2F0
:1042D000091001F0E9FC00214DF20A1001F0E4FCA4
:1042E00081214DF20B1001F0DFFC00214DF20C108A
:1042F00001F0DAFCA6214DF20D1001F0D5FC0021F1
:104300004DF20E1001F0D0FCE5214DF20F1001F03E
:10431000CBFC01214DF2101001F0C6FC13214DF22F
:10432000111001F0C1FC01214DF2121001F0BCFC92
:1043300054214DF2131001F0B7FC01214DF214107D
:1043400001F0B2FC82214DF2151001F0ADFC01210B
:104350004DF2161001F0A8FCCA214DF2171001F021
:10436000A3FC02214DF2181001F09EFC00214DF239
:10437000191001F099FC02214DF21A1001F094FC81
:1043800001214DF21B1001F08FFC02214DF21C1097
:1043900001F08AFC34214DF21D1001F085FC022150
:1043A0004DF21E1001F080FC67214DF21F1001F04C
:1043B0007BFC02214DF2201001F076FC84214DF2AD
:1043C000211001F071FC02214DF2221001F06CFC71
:1043D000A4214DF2231001F067FC02214DF22410BC
:1043E00001F062FCB7214DF2251001F05DFC0221C5
:1043F0004DF2261001F058FCCF214DF2271001F0AC
:1044000053FC02214DF2281001F04EFCDE214DF24A
:10441000291001F049FC02214DF22A1001F044FC60
:10442000F2214DF22B1001F03FFC02214DF22C1035
:1044300001F03AFCFE214DF22D1001F035FC032174
:104440004DF22E1001F030FC10214DF22F1001F032
:104450002BFC03214DF2301001F026FC33214DF2EC
:10446000311001F021FC03214DF2321001F01CFC4F
:104470006D214DF2331001F017FC00214FF4524032
:1044800001F012FC33214DF2012001F00DFC00215E
:104490004DF2022001F008FC34214DF2032001F01E
:1044A00003FC00214DF2042001F0FEFB3A214DF205
:1044B000052001F0F9FB00214DF2062001F0F4FB8C
:1044C0004A214DF2072001F0EFFB00214DF20820B8
:1044D00001F0EAFB5C214DF2092001F0E5FB00212F
:1044E0004DF20A2001F0E0FB81214DF20B2001F09A
:1044F000DBFB00214DF20C2001F0D6FBA6214DF292
:104500000D2001F0D1FB00214DF20E2001F0CCFB7B
:10451000E5214DF20F2001F0C7FB01214DF21020E3
:1045200001F0C2FB13214DF2112001F0BDFB01216E
:104530004DF2122001F0B8FB54214DF2132001F08E
:10454000B3FB01214DF2142001F0AEFB82214DF2AC
:10455000152001F0A9FB01214DF2162001F0A4FB6A
:10456000CA214DF2172001F09FFB02214DF21820C5
:1045700001F09AFB00214DF2192001F095FB022178
:104580004DF21A2001F090FB01214DF21B2001F0A9
:104590008BFB02214DF21C2001F086FB34214DF2F1
:1045A0001D2001F081FB02214DF21E2001F07CFB59
:1045B00067214DF21F2001F077FB02214DF22020F0
:1045C00001F072FB84214DF2212001F06DFB0221EC
:1045D0004DF2222001F068FBA4214DF2232001F0CE
:1045E00063FB02214DF2242001F05EFBB7214DF266
:1045F000252001F059FB02214DF2262001F054FB49
:10460000CF214DF2272001F04FFB02214DF228204F
:1046100001F04AFBDE214DF2292001F045FB022189
:104620004DF22A2001F040FBF2214DF22B2001F047
:104630003BFB02214DF22C2001F036FBFE214DF216
:104640002D2001F031FB03214DF22E2001F02CFB37
:1046500010214DF22F2001F027FB03214DF23020D5
:1046600001F022FB33214DF2312001F01DFB03212B
:104670004DF2322001F018FB6D214DF2332001F094
:1046800013FB00214FF4534001F00EFB33214DF298
:10469000013001F009FB00214DF2023001F004FB72
:1046A00034214DF2033001F0FFFA00214DF20430C5
:1046B00001F0FAFA3A214DF2053001F0F5FA002145
:1046C0004DF2063001F0F0FA4A214DF2073001F0C8
:1046D000EBFA00214DF2083001F0E6FA5C214DF2D0
:1046E000093001F0E1FA00214DF20A3001F0DCFA64
:1046F00081214DF20B3001F0D7FA00214DF20C3040
:1047000001F0D2FAA6214DF20D3001F0CDFA0021D0
:104710004DF20E3001F0C8FAE5214DF20F3001F0F4
:10472000C3FA01214DF2103001F0BEFA13214DF20F
:10473000113001F0B9FA01214DF2123001F0B4FA52
:1047400054214DF2133001F0AFFA01214DF2143033
:1047500001F0AAFA82214DF2153001F0A5FA0121EB
:104760004DF2163001F0A0FACA214DF2173001F0D7
:104770009BFA02214DF2183001F096FA00214DF219
:10478000193001F091FA02214DF21A3001F08CFA41
:1047900001214DF21B3001F087FA02214DF21C304D
:1047A00001F082FA34214DF21D3001F07DFA022130
:1047B0004DF21E3001F078FA67214DF21F3001F002
:1047C00073FA02214DF2203001F06EFA84214DF28D
:1047D000213001F069FA02214DF2223001F064FA31
:1047E000A4214DF2233001F05FFA02214DF2243072
:1047F00001F05AFAB7214DF2253001F055FA0221A5
:104800004DF2263001F050FACF214DF2273001F061
:104810004BFA02214DF2283001F046FADE214DF22A
:10482000293001F041FA02214DF22A3001F03CFA20
:10483000F2214DF22B3001F037FA02214DF22C30EB
:1048400001F032FAFE214DF22D3001F02DFA032154
:104850004DF22E3001F028FA10214DF22F3001F0E8
:1048600023FA03214DF2303001F01EFA33214DF2CC
:10487000313001F019FA03214DF2323001F014FA0F
:104880006D214DF2333001F00FFA00214FF4544006
:1048900001F00AFA33214DF2014001F005FA00213E
:1048A0004DF2024001F000FA34214DF2034001F0D4
:1048B000FBF900214DF2044001F0F6F93A214DF2E6
:1048C000054001F0F1F900214DF2064001F0ECF94C
:1048D0004A214DF2074001F0E7F900214DF208406E
:1048E00001F0E2F95C214DF2094001F0DDF900210F
:1048F0004DF20A4001F0D8F981214DF20B4001F050
:10490000D3F900214DF20C4001F0CEF9A6214DF271
:104910000D4001F0C9F900214DF20E4001F0C4F93B
:10492000E5214DF20F4001F0BFF901214DF2104099
:1049300001F0BAF913214DF2114001F0B5F901214E
:104940004DF2124001F0B0F954214DF2134001F044
:10495000ABF901214DF2144001F0A6F982214DF28C
:10496000154001F0A1F901214DF2164001F09CF92A
:10497000CA214DF2174001F097F902214DF218407B
:1049800001F092F900214DF2194001F08DF9022158
:104990004DF21A4001F088F901214DF21B4001F05F
:1049A00083F9022100E0FFE24DF21C4001F07CF9A6
:1049B00034214DF21D4001F077F902214DF21E40E5
:1049C00001F072F967214DF21F4001F06DF90221EB
:1049D0004DF2204001F068F984214DF2214001F0B0
:1049E00063F902214DF2224001F05EF9A4214DF25B
:1049F000234001F059F902214DF2244001F054F90D
:104A0000B7214DF2254001F04FF902214DF2264029
:104A100001F04AF9CF214DF2274001F045F902217A
:104A20004DF2284001F040F9DE214DF2294001F01D
:104A30003BF902214DF22A4001F036F9F2214DF204
:104A40002B4001F031F902214DF22C4001F02CF9FC
:104A5000FE214DF22D4001F027F903214DF22E40A9
:104A600001F022F910214DF22F4001F01DF9032130
:104A70004DF2304001F018F933214DF2314001F090
:104A800013F903214DF2324001F00EF96D214DF280
:104A9000334001F009F900214FF4554001F004F9C9
:104AA00033214DF2015001F0FFF800214DF2025088
:104AB00001F0FAF834214DF2035001F0F5F800212D
:104AC0004DF2045001F0F0F83A214DF2055001F09A
:104AD000EBF800214DF2065001F0E6F84A214DF2C4
:104AE000075001F0E1F800214DF2085001F0DCF828
:104AF0005C214DF2095001F0D7F800214DF20A5027
:104B000001F0D2F881214DF20B5001F0CDF80021D7
:104B10004DF20C5001F0C8F8A6214DF20D5001F0F5
:104B2000C3F800214DF20E5001F0BEF8E5214DF220
:104B30000F5001F0B9F801214DF2105001F0B4F816
:104B400013214DF2115001F0AFF801214DF2125036
:104B500001F0AAF854214DF2135001F0A5F80121FB
:104B60004DF2145001F0A0F882214DF2155001F0E1
:104B70009BF801214DF2165001F096F8CA214DF232
:104B8000175001F091F802214DF2185001F08CF805
:104B900000214DF2195001F087F802214DF21A5010
:104BA00001F082F801214DF21B5001F07DF8022145
:104BB0004DF21C5001F078F834214DF21D5001F0F7
:104BC00073F802214DF21E5001F06EF867214DF28C
:104BD0001F5001F069F802214DF2205001F064F8F5
:104BE00084214DF2215001F05FF802214DF2225054
:104BF00001F05AF8A4214DF2235001F055F802219A
:104C00004DF2245001F050F8B7214DF2255001F03B
:104C10004BF802214DF2265001F046F8CF214DF21B
:104C2000275001F041F802214DF2285001F03CF8E4
:104C3000DE214DF2295001F037F802214DF22A50C1
:104C400001F032F8F2214DF22B5001F02DF8022143
:104C50004DF22C5001F028F8FE214DF22D5001F0BC
:104C600023F803214DF22E5001F01EF810214DF2D1
:104C70002F5001F019F803214DF2305001F014F8D3
:104C800033214DF2315001F00FF803214DF2325033
:104C900001F00AF86D214DF2335001F005F80021C2
:104CA0004FF4564001F000F833214DF2016000F05E
:104CB000FBFF00214DF2026000F0F6FF34214DF2BF
:104CC000036000F0F1FF00214DF2046000F0ECFF02
:104CD0003A214DF2056000F0E7FF00214DF2066039
:104CE00000F0E2FF4A214DF2076000F0DDFF0021F5
:104CF0004DF2086000F0D8FF5C214DF2096000F031
:104D0000D3FF00214DF20A6000F0CEFF81214DF269
:104D10000B6000F0C9FF00214DF20C6000F0C4FFF1
:104D2000A6214DF20D6000F0BFFF00214DF20E6094
:104D300000F0BAFFE5214DF20F6000F0B5FF012150
:104D40004DF2106000F0B0FF13214DF2116000F041
:104D5000ABFF01214DF2126000F0A6FF54214DF28D
:104D6000136000F0A1FF01214DF2146000F09CFFE0
:104D700082214DF2156000F097FF01214DF216607F
:104D800000F092FFCA214DF2176000F08DFF022162
:104D90004DF2186000F088FF00214DF2196000F01C
:104DA00083FF02214DF21A6000F07EFF01214DF2D7
:104DB0001B6000F079FF02214DF21C6000F074FFCF
:104DC00034214DF21D6000F06FFF02214DF21E6094
:104DD00000F06AFF67214DF21F6000F065FF0221BD
:104DE0004DF2206000F060FF84214DF2216000F060
:104DF0005BFF02214DF2226000F056FFA4214DF22C
:104E0000236000F051FF02214DF2246000F04CFFBE
:104E1000B7214DF2256000F047FF02214DF22660D8
:104E200000F042FFCF214DF2276000F03DFF02214C
:104E30004DF2286000F038FFDE214DF2296000F0CD
:104E400033FF02214DF22A6000F02EFFF2214DF2D5
:104E50002B6000F029FF02214DF22C6000F024FFAE
:104E6000FE214DF22D6000F01FFF03214DF22E6058
:104E700000F01AFF10214DF22F6000F015FF032102
:104E80004DF2306000F010FF33214DF2316000F040
:104E90000BFF03214DF2326000F006FF6D214DF251
:104EA000336000F001FF55214FF4704000F0FCFE2C
:104EB000AA214FF2010000F0F7FE52214FF202004A
:104EC00000F0F2FE08214FF2030000F0EDFE002199
:104ED000184600F0E9FECC214FF4314000F0E4FE2A
:104EE00000214BF2011000F0DFFE05214FF43640A7
:104EF00000F0DAFE70214FF4374000F0D5FE70214B
:104F00004BF2017000F0D0FE01214FF4384000F068
:104F1000CBFE03214BF6010000F0C6FE03214BF649
:104F2000020000F0C1FE03214BF6030000F0BCFEBE
:104F300002214FF43C4000F0B7FE00214BF6014047
:104F400000F0B2FE00214BF6024000F0ADFED02191
:104F50004FF4494000F0A8FE02214CF6011000F089
:104F6000A3FE50214CF6021000F09EFE50214CF69C
:104F7000031000F099FE50214CF6041000F094FE4E
:104F800000214FF4545000F08FFE55214FF468502B
:104F900000F08AFE4FF4885000F070FE782002F096
:104FA000F9FF4FF4245083E2B8427CD1112000F085
:104FB00065FE782002F0E0FF362000F05FFE48201A
:104FC00000F050FE3A2000F059FE552000F04AFE55
:104FD000F02000F053FEC32000F044FEF02000F06B
:104FE0004DFE962000F03EFEB42000F047FE01206A
:104FF00000F038FEB62000F041FE0A2000F032FE3C
:10500000A22000F02FFEB72000F038FEC62000F0EE
:1050100029FEB92000F032FE022000F023FEE0203D
:1050200000F020FEC02000F029FE802000F01AFED3
:10503000162000F017FEC12000F020FE192000F01D
:1050400011FEC22000F01AFEA72000F00BFEC520C2
:1050500000F014FE162000F005FEE82000F00EFE21
:10506000402000F0FFFD8A2000F0FCFD002000F051
:10507000F9FD002000F0F6FD292000F0F3FD1920D5
:1050800000F0F0FDA52000F0EDFD332000F0EAFD7A
:10509000E02000F0F3FDF02000F0E4FD072000F038
:1050A000E1FD0D2000E063E000F0DCFD042000F0F5
:1050B000D9FD052000F0D6FD142000F0D3FD3620E8
:1050C00000F0D0FD542000F0CDFD4C2000F0CAFDD2
:1050D000382000F0C7FD132000F0C4FD142000F0BC
:1050E000C1FD2E2000F0BEFD342000F0BBFDE1200C
:1050F00000F0C4FDF02000F0B5FD102000F0B2FD7E
:10510000142000F0AFFD0E2000F0ACFD0C2000F0EC
:10511000A9FD082000F0A6FD352000F0A3FD4420E5
:1051200000F0A0FD4C2000F09DFD262000F09AFD2F
:10513000102000F097FD122000F094FD2C2000F0CC
:1051400091FD322000F08EFDF02000F097FD3C2014
:1051500000F088FDF02000F091FD692000F082FD54
:10516000782002F009FF212000F088FDFEF798BFAB
:1051700040457CD1FF2000F081FDFF2000F072FD52
:10518000982000F06FFD062000F06CFDBC2000F0C0
:1051900075FD012000F066FD0F2000F063FD612029
:1051A00000F060FDFF2000F05DFD012000F05AFDE1
:1051B000012000F057FD0B2000F054FD102000F0FE
:1051C00051FD372000F04EFD632000F04BFDFF2025
:1051D00000F048FDFF2000F045FD012000F042FDF9
:1051E000012000F03FFD002000F03CFD002000F019
:1051F00039FDFF2000F036FD522000F033FD012084
:1052000000F030FD002000F02DFD402000F02AFDD0
:10521000BD2000F033FD012000F024FD232000F02C
:1052200021FD452000F01EFD672000F01BFD012040
:1052300000F018FD232000F015FD452000F012FDC0
:10524000672000F00FFDBE2000F018FD002000F0E8
:1052500009FD012000F006FDAB2000F003FD6020F9
:1052600000F000FD222000F0FDFC222000E022E101
:1052700000F0F8FC222000F0F5FC222000F0F2FC07
:10528000222000F0EFFCC72000F0F8FC362000F0F0
:10529000E9FCED2000F0F2FC7F2000F0E3FC0F20A1
:1052A00000F0E0FCC02000F0E9FC0F2000F0DAFC88
:1052B0000B2000F0D7FC0A2000F0D4FCFC2000F00A
:1052C000DDFC082000F0CEFCDF2000F0D7FC002041
:1052D00000F0C8FC002000F0C5FC002000F0C2FC7B
:1052E000002000F0BFFC002000F0BCFC202000F0FB
:1052F000B9FCF32000F0C2FC742000F0B3FCB42031
:1053000000F0BCFC002000F0ADFC002000F0AAFC86
:10531000002000F0A7FCF72000F0B0FC822000F095
:10532000A1FCB12000F0AAFC002000F09BFC13209F
:1053300000F098FC132000F095FCF22000F09EFC99
:10534000802000F08FFC042000F08CFC402000F056
:1053500089FC282000F086FCC12000F08FFC17207B
:1053600000F080FC882000F07DFC882000F07AFCB2
:10537000202000F077FCE02000F080FC002000F00E
:1053800071FC0A2000F06EFC122000F06BFC102073
:1053900000F068FC0E2000F065FC202000F062FCAC
:1053A000CC2000F05FFC072000F05CFC062000F041
:1053B00059FC0B2000F056FC0E2000F053FC0F208F
:1053C00000F050FC0D2000F04DFC152000F04AFCD0
:1053D000102000F047FC002000F044FCE12000F029
:1053E0004DFC002000F03EFC0B2000F03BFC1320A5
:1053F00000F038FC0D2000F035FC0E2000F032FCEF
:105400001B2000F02FFC712000F02CFC062000F087
:1054100029FC062000F026FC0A2000F023FC0F20C7
:1054200000F020FC0E2000F01DFC0F2000F01AFC04
:10543000152000F017FC0C2000F014FC002000F0F8
:1054400011FC2A2000F01AFC002000F00BFC0020C8
:1054500000F008FC012000F005FCDF2000F002FC59
:105460002B2000F00BFC002000F0FCFB002000F0E3
:10547000F9FB032000F0F6FB1F2000F0F3FB3A20BD
:1054800000F0FCFB552000F0EDFB362000F0F6FBB1
:10549000002000F0E7FB112000F0F0FB782002F084
:1054A0006BFD292000F0EAFB142002F065FD2C20A2
:1054B00000F0E4FBB9E04845FCD1E22000F0DEFB5F
:1054C0001D2000F0CFFB022000F0CCFB042000F0F8
:1054D000C9FB642002F05EFDE02000F0CFFB01205C
:1054E00000F0C0FB0A2002F047FDE02000F0C6FB00
:1054F000032000F0B7FB0C2002F03EFD012000F07D
:10550000BDFB0A2002F038FDE62000F0B7FB2F209B
:1055100000F0A8FBFF2000F0A5FBFF2000F0A2FB9D
:10552000B02000F0ABFB202000F09CFB002000F03E
:1055300099FB032000F096FB40F21F3000F092FB35
:10554000012000F08FFB40F2DF1000F08BFB002009
:1055500000F088FBB42000F091FB042000F082FBF7
:1055600040F21F4000F07EFB002000F07BFB2E206D
:1055700000F078FB002000F075FB002000F072FBCB
:10558000002000F06FFB002000F06CFBB62000F064
:1055900075FB022000F066FB4FF4037000F062FB25
:1055A000002000F05FFB172000F05CFB152000F0EE
:1055B00059FB002000F056FB002000F053FBF020C8
:1055C00000F05CFB032000F04DFB292000F056FBAF
:1055D000D02000F053FB002000F044FBBE2000F080
:1055E0004DFB052000F03EFBFE2000F03BFB0120C0
:1055F00000F038FB002000F035FB002000F032FB0B
:10560000002000F02FFBB82000F038FB032000F052
:1056100029FB012000F026FBBA2000F02FFB01201F
:1056200000F020FB642000F095F8A88858450DD0C4
:10563000A0F5EE41893909D0B04207D0A04205D08B
:10564000484503D0B84201D040451DD14FF020411C
:10565000D1F81C2122F00F02C1F81C21D1F81C2125
:1056600022F47062C1F81C21D1F81C2142F003021F
:10567000C1F81C21A0F5EE42D1F81C01893A10D0E6
:1056800040F40070C1F81C010020FDF76BF90649D9
:105690000120C1F8BC025046FDF71EF915B0BDE867
:1056A000F08F40F48060EDE7008040420346012027
:1056B00000E05843491EC9B2FBD2704708B54FF00D
:1056C000D840B0F88000ADF80000BDF8000008BD7B
:1056D00010B51F4C2288824202D962888A4201D8C2
:1056E000002010BD00F030F9A088A0F5AA411039C3
:1056F00028D02E2000F0C2FAFFF7E0FFA188A1F524
:10570000C852633AEDD00220401EC0B2FCD2FFF76F
:10571000D5FF0246A088A0F5EE41963915D00221AA
:10572000491EC9B2FCD2FFF7C9FFD1B24FF6FF73D1
:1057300003EA01216FF30A02890A42EA411141EAB0
:10574000D02010BD4FF43850D4E7104610BD0000F3
:10575000B803002010B50246BE2000F08FFA0520E5
:1057600000F080FA104609F050FC9FED0C1B53EC42
:10577000112B09F05DFC09F01BFC80B200F072FAFD
:10578000012000F06FFAFF2000F06CFA002000F01A
:1057900069FABDE81040002000F064BA66666666EB
:1057A0006666044070B5674C00232146A27989885B
:1057B00041F66315012A01D01AB11BE0A94202D1BA
:1057C00018E0A94216D1082814D2DFE800F0040638
:1057D000080A0C0E101206200CE007200AE0042034
:1057E00008E0052006E0012004E0002002E003209C
:1057F00000E00220082812D2DFE800F011040608B9
:105800000A0C0E1080230AE0402308E0C02306E0C3
:10581000202304E0602302E0A02300E0E02345F21F
:105820001056B14202D14FF4585000E03620A1F595
:105830001342413A05D0A1F5EE42893A01D00D3A22
:1058400001D143F00803194600F02EFAA188A942BD
:105850000AD098062088628802D5904202D303E0DD
:10586000904201D9228060806089B14240D100F02D
:1058700005FA002000F0F6F96089401C80B200F0C3
:10588000FDF9002000F0EEF96089801C80B200F084
:10589000F5F92088401EC0F30F2000F0E3F960897D
:1058A000C01C80B200F0EAF92078401EC0B200F0BF
:1058B000D9F9A08900F0E2F9002000F0D3F9A0891D
:1058C000401C80B200F0DAF9002000F0CBF9A0898A
:1058D000801C80B200F0D2F96088401EC0F30F2017
:1058E00000F0C0F9A089C01C80B200F0C7F921E027
:1058F00000F0C4F9002000F0B5F9002000F0B2F982
:105900002088401EC0F30F2000F0ACF92078401E24
:10591000C0B200F0A7F9A08900F0B0F9002000F0B3
:10592000A1F9002000F09EF96088401EC0F30F200E
:1059300000F098F9A078BDE87040401EC0B200F0B9
:1059400091B90000B8030020F0B53A4D0C4602466C
:10595000060AA9882846270A4089A1F5C853633B4F
:1059600016D0A1F5AA43103B4BD000F087F9304682
:1059700000F078F9D0B200F075F9A88900F07EF94E
:10598000384600F06FF9E0B2BDE8F04000F06AB9C7
:10599000A97929B300F072F9304600F063F9D0B26A
:1059A00000F060F92888401EC0F30F2000F05AF97B
:1059B0002878401EC0B200F055F9A88900F05EF9C1
:1059C000384600F04FF9E0B200F04CF96888401E0C
:1059D000C0F30F2000F046F9A878401EC0B2D3E70C
:1059E0002988891A491E8AB200F048F9002000F07F
:1059F00039F9002000F036F9100A00F033F9D0B27E
:105A0000D9E700F03BF9304600F02CF96889401CDA
:105A100080B200F033F9D0B200F024F9A88900F088
:105A20002DF9384600F01EF9A889401C80B200F01C
:105A300025F9A8E7B80300202DE9F84F82461F4654
:105A40000E468B46580700D0012000EBD70079089E
:105A500010FB01F0203AC0B202F0FF0900250090CF
:105A600047E00C2F10D0102F12D0182F14D0202F59
:105A700042D1224901EBC9104FF00008445D2006D5
:105A800010D51F48026811E009EB49001D4906E0E6
:105A90001D4901EB0910EFE71C4909EBC90001EBB7
:105AA0008000E9E70A9828B915484268314650460F
:105AB000FCF7CCFF6006040E1548761CB6B2408891
:105AC000B04219D9A6EB0B00B84209D10AF1010086
:105AD0001FFA80FA0E485E46018851450CD906E04F
